:1000000009C016C015C014C013C012C012C084C0ED
:100010000FC00EC011241FBECFE9CDBF20E0A0E667
:10002000B0E001C01D92AA36B207E1F792D0E5C157
:10003000E7CF1F920F920FB60F9211242F933F9389
:100040004F935F936F937F938F939F93AF93BF93E0
:1000500096B780916200890F86BF80916000909171
:100060006100019690936100809360002091670089
:10007000309168008217930768F4C09A80916900F4
:1000800090E041E02091600030916100281739072D
:10009000A0F012C0C0984091670050916800209174
:1000A00069008091600090916100841B950B30E0A5
:1000B00041E08217930708F040E04093650080918B
:1000C00063009091640020916000309161002817D6
:1000D000390790F0809163009091640062E370E0D2
:1000E0003CD164E670E04AD1709368006093670089
:1000F0001092610010926000A895BF91AF919F91FE
:100100008F917F916F915F914F913F912F910F90C0
:100110000FBE0F901F9018951F920F920FB60F925F
:1001200011248F939F9399B580916600890F89BDA3
:1001300080916500882329F088B392E0892788BBE5
:1001400001C0C1989F918F910F900FBE0F901F908B
:10015000189529E088E190E00FB6F894A89581BD44
:100160000FBE21BD83E087BB96E990936200909318
:1001700066009091620096BF9091660099BD1FBC89
:1001800083BF89B78C6089BF88B78C6088BF12BE77
:10019000789485E08093690080E293E09093640016
:1001A00080936300809163009091640062E370E04B
:1001B000D4D064E670E0E2D070936800609367008A
:1001C0008FE19DEF0197F1F700C0000082E090E021
:1001D000E9D08093690080916900809169008B3F2C
:1001E00018F085E08093690080E090E0E3D0909380
:1001F0006400809363008091630090916400843F69
:10020000914038F08091630090916400893E934062
:1002100030F080E293E090936400809363008091DB
:1002200063009091640062E370E097D064E670E050
:10023000A5D0709368006093670030E040E020E054
:1002400088B3886188BBB49904C04F3F19F04F5FF1
:1002500001C040E0B39904C02F3F19F02F5F01C0E7
:1002600020E08FEB9DE50197F1F700C00000483CCE
:1002700020F1283C10F13F5F333008F469C082E080
:1002800090E090D090916900891729F06091690001
:1002900082E090E092D080E090E08CD020916300EA
:1002A000309164008217930741F26091630070916E
:1002B000640080E090E08FD0C0CF332309F2442364
:1002C00009F12111BDCF4B3008F4BACF313019F00C
:1002D000323079F0B5CF8091630090916400883E10
:1002E000934008F0ADCF8091630090916400019637
:1002F0001FC080916900882309F4A2CF8091690012
:10030000815023C02B3010F440E09ACF313019F0E7
:10031000323099F095CF8091630090916400853FD1
:10032000914008F48DCF8091630090916400019713
:10033000909364008093630083CF809169008A3F2B
:1003400008F07ECF809169008F5F8093690078CF3D
:10035000332309F473CF20E0D7CF0024552704C0FE
:10036000080E591F880F991F009729F076956795F9
:10037000B8F37105B9F7802D952F0895AA1BBB1B03
:1003800051E107C0AA1FBB1FA617B70710F0A61B95
:10039000B70B881F991F5A95A9F780959095BC01B6
:1003A000CD010895E199FECF1FBA8EBBE09A99273F
:1003B0008DB30895A8E142E013C0262FE199FECF46
:1003C0001CBA1FBA8EBB2DBB0FB6F894E29AE19A05
:1003D0000FBE01960895F1DF272FF0CFA82F862FAB
:1003E000E82FE199FECF1FBA05C0EEBBE09AE39576
:0E03F0000DB20D924150C8F70895F894FFCF5A
:00000001FF
